{
  "contractName": "BatchSupply",
  "abi": [
    {
      "anonymous": false,
      "inputs": [
        {
          "indexed": false,
          "internalType": "uint256",
          "name": "batchId",
          "type": "uint256"
        },
        {
          "indexed": false,
          "internalType": "string",
          "name": "certificateAuthority",
          "type": "string"
        },
        {
          "indexed": false,
          "internalType": "string",
          "name": "certificateDocHash",
          "type": "string"
        }
      ],
      "name": "BatchCertified",
      "type": "event"
    },
    {
      "anonymous": false,
      "inputs": [
        {
          "indexed": false,
          "internalType": "uint256",
          "name": "batchId",
          "type": "uint256"
        },
        {
          "indexed": false,
          "internalType": "string",
          "name": "name",
          "type": "string"
        },
        {
          "indexed": false,
          "internalType": "uint256",
          "name": "price",
          "type": "uint256"
        },
        {
          "indexed": false,
          "internalType": "string",
          "name": "manufacturerName",
          "type": "string"
        },
        {
          "indexed": false,
          "internalType": "string",
          "name": "manufacturerDetails",
          "type": "string"
        },
        {
          "indexed": false,
          "internalType": "string",
          "name": "longitude",
          "type": "string"
        },
        {
          "indexed": false,
          "internalType": "string",
          "name": "latitude",
          "type": "string"
        },
        {
          "indexed": false,
          "internalType": "string",
          "name": "category",
          "type": "string"
        }
      ],
      "name": "BatchCreated",
      "type": "event"
    },
    {
      "anonymous": false,
      "inputs": [
        {
          "indexed": false,
          "internalType": "uint256",
          "name": "productId",
          "type": "uint256"
        },
        {
          "indexed": false,
          "internalType": "string",
          "name": "location",
          "type": "string"
        },
        {
          "indexed": false,
          "internalType": "string",
          "name": "longitude",
          "type": "string"
        },
        {
          "indexed": false,
          "internalType": "string",
          "name": "latitude",
          "type": "string"
        },
        {
          "indexed": false,
          "internalType": "uint256",
          "name": "checkInTime",
          "type": "uint256"
        },
        {
          "indexed": false,
          "internalType": "uint256",
          "name": "checkOutTime",
          "type": "uint256"
        }
      ],
      "name": "CheckpointAdded",
      "type": "event"
    },
    {
      "anonymous": false,
      "inputs": [
        {
          "indexed": false,
          "internalType": "uint256",
          "name": "productId",
          "type": "uint256"
        },
        {
          "indexed": false,
          "internalType": "uint256",
          "name": "batchId",
          "type": "uint256"
        },
        {
          "indexed": false,
          "internalType": "string",
          "name": "customerName",
          "type": "string"
        },
        {
          "indexed": false,
          "internalType": "string",
          "name": "customerAddress",
          "type": "string"
        },
        {
          "indexed": false,
          "internalType": "string",
          "name": "customerPhoneNumber",
          "type": "string"
        },
        {
          "indexed": false,
          "internalType": "string",
          "name": "customerEmail",
          "type": "string"
        }
      ],
      "name": "ProductAdded",
      "type": "event"
    },
    {
      "anonymous": false,
      "inputs": [
        {
          "indexed": false,
          "internalType": "uint256",
          "name": "productId",
          "type": "uint256"
        },
        {
          "indexed": false,
          "internalType": "address",
          "name": "logisticsPartner",
          "type": "address"
        }
      ],
      "name": "ProductAssignedToCourier",
      "type": "event"
    },
    {
      "anonymous": false,
      "inputs": [
        {
          "indexed": false,
          "internalType": "uint256",
          "name": "productId",
          "type": "uint256"
        },
        {
          "indexed": false,
          "internalType": "address",
          "name": "customer",
          "type": "address"
        }
      ],
      "name": "ProductAssignedToCustomer",
      "type": "event"
    },
    {
      "anonymous": false,
      "inputs": [
        {
          "indexed": false,
          "internalType": "uint256",
          "name": "productId",
          "type": "uint256"
        },
        {
          "indexed": false,
          "internalType": "string",
          "name": "deliveryStatus",
          "type": "string"
        },
        {
          "indexed": false,
          "internalType": "address",
          "name": "logisticsPartner",
          "type": "address"
        }
      ],
      "name": "ProductDelivered",
      "type": "event"
    },
    {
      "inputs": [
        {
          "internalType": "uint256",
          "name": "_productId",
          "type": "uint256"
        },
        {
          "internalType": "uint256",
          "name": "_batchId",
          "type": "uint256"
        },
        {
          "internalType": "string",
          "name": "_customerName",
          "type": "string"
        },
        {
          "internalType": "string",
          "name": "_customerAddress",
          "type": "string"
        },
        {
          "internalType": "string",
          "name": "_customerPhoneNumber",
          "type": "string"
        },
        {
          "internalType": "string",
          "name": "_customerEmail",
          "type": "string"
        }
      ],
      "name": "addProduct",
      "outputs": [],
      "stateMutability": "nonpayable",
      "type": "function"
    },
    {
      "inputs": [
        {
          "internalType": "uint256",
          "name": "_id",
          "type": "uint256"
        },
        {
          "internalType": "string",
          "name": "_name",
          "type": "string"
        },
        {
          "internalType": "uint256",
          "name": "_price",
          "type": "uint256"
        },
        {
          "internalType": "string",
          "name": "_manufacturerName",
          "type": "string"
        },
        {
          "internalType": "string",
          "name": "_manufacturerDetails",
          "type": "string"
        },
        {
          "internalType": "string",
          "name": "_longitude",
          "type": "string"
        },
        {
          "internalType": "string",
          "name": "_latitude",
          "type": "string"
        },
        {
          "internalType": "string",
          "name": "_category",
          "type": "string"
        }
      ],
      "name": "addBatch",
      "outputs": [],
      "stateMutability": "nonpayable",
      "type": "function"
    },
    {
      "inputs": [
        {
          "internalType": "uint256",
          "name": "_batchId",
          "type": "uint256"
        },
        {
          "internalType": "uint256",
          "name": "_productId",
          "type": "uint256"
        }
      ],
      "name": "addProductToBatch",
      "outputs": [],
      "stateMutability": "nonpayable",
      "type": "function"
    },
    {
      "inputs": [
        {
          "internalType": "uint256",
          "name": "_batchId",
          "type": "uint256"
        },
        {
          "internalType": "string",
          "name": "_certificateAuthority",
          "type": "string"
        },
        {
          "internalType": "string",
          "name": "_digitalSignature",
          "type": "string"
        },
        {
          "internalType": "string",
          "name": "_certificateDocHash",
          "type": "string"
        }
      ],
      "name": "certifyBatch",
      "outputs": [],
      "stateMutability": "nonpayable",
      "type": "function"
    },
    {
      "inputs": [
        {
          "internalType": "uint256",
          "name": "_productId",
          "type": "uint256"
        }
      ],
      "name": "assignCourier",
      "outputs": [],
      "stateMutability": "nonpayable",
      "type": "function"
    },
    {
      "inputs": [
        {
          "internalType": "uint256",
          "name": "_productId",
          "type": "uint256"
        },
        {
          "internalType": "string",
          "name": "_location",
          "type": "string"
        },
        {
          "internalType": "string",
          "name": "_longitude",
          "type": "string"
        },
        {
          "internalType": "string",
          "name": "_latitude",
          "type": "string"
        },
        {
          "internalType": "uint256",
          "name": "_checkInTime",
          "type": "uint256"
        },
        {
          "internalType": "uint256",
          "name": "_checkOutTime",
          "type": "uint256"
        }
      ],
      "name": "addCheckpoint",
      "outputs": [],
      "stateMutability": "nonpayable",
      "type": "function"
    },
    {
      "inputs": [
        {
          "internalType": "uint256",
          "name": "_productId",
          "type": "uint256"
        },
        {
          "internalType": "string",
          "name": "_deliveryStatus",
          "type": "string"
        }
      ],
      "name": "markAsDelivered",
      "outputs": [],
      "stateMutability": "nonpayable",
      "type": "function"
    },
    {
      "inputs": [
        {
          "internalType": "uint256",
          "name": "_productId",
          "type": "uint256"
        },
        {
          "internalType": "address",
          "name": "_customer",
          "type": "address"
        }
      ],
      "name": "assignToCustomer",
      "outputs": [],
      "stateMutability": "nonpayable",
      "type": "function"
    },
    {
      "inputs": [
        {
          "internalType": "uint256",
          "name": "_id",
          "type": "uint256"
        }
      ],
      "name": "getBatch",
      "outputs": [
        {
          "components": [
            {
              "internalType": "uint256",
              "name": "id",
              "type": "uint256"
            },
            {
              "internalType": "string",
              "name": "name",
              "type": "string"
            },
            {
              "internalType": "uint256",
              "name": "price",
              "type": "uint256"
            },
            {
              "internalType": "string",
              "name": "manufacturerName",
              "type": "string"
            },
            {
              "internalType": "string",
              "name": "manufacturerDetails",
              "type": "string"
            },
            {
              "internalType": "string",
              "name": "longitude",
              "type": "string"
            },
            {
              "internalType": "string",
              "name": "latitude",
              "type": "string"
            },
            {
              "internalType": "string",
              "name": "category",
              "type": "string"
            },
            {
              "internalType": "address",
              "name": "manufacturer",
              "type": "address"
            },
            {
              "internalType": "string",
              "name": "certificateAuthority",
              "type": "string"
            },
            {
              "internalType": "string",
              "name": "digitalSignature",
              "type": "string"
            },
            {
              "internalType": "string",
              "name": "certificateDocHash",
              "type": "string"
            },
            {
              "internalType": "bool",
              "name": "isCertified",
              "type": "bool"
            }
          ],
          "internalType": "struct BatchSupply.Batch",
          "name": "",
          "type": "tuple"
        }
      ],
      "stateMutability": "view",
      "type": "function",
      "constant": true
    },
    {
      "inputs": [
        {
          "internalType": "uint256",
          "name": "_id",
          "type": "uint256"
        }
      ],
      "name": "getProduct",
      "outputs": [
        {
          "components": [
            {
              "internalType": "uint256",
              "name": "id",
              "type": "uint256"
            },
            {
              "internalType": "uint256",
              "name": "batchId",
              "type": "uint256"
            },
            {
              "components": [
                {
                  "internalType": "uint256",
                  "name": "id",
                  "type": "uint256"
                },
                {
                  "internalType": "string",
                  "name": "name",
                  "type": "string"
                },
                {
                  "internalType": "uint256",
                  "name": "price",
                  "type": "uint256"
                },
                {
                  "internalType": "string",
                  "name": "manufacturerName",
                  "type": "string"
                },
                {
                  "internalType": "string",
                  "name": "manufacturerDetails",
                  "type": "string"
                },
                {
                  "internalType": "string",
                  "name": "longitude",
                  "type": "string"
                },
                {
                  "internalType": "string",
                  "name": "latitude",
                  "type": "string"
                },
                {
                  "internalType": "string",
                  "name": "category",
                  "type": "string"
                },
                {
                  "internalType": "address",
                  "name": "manufacturer",
                  "type": "address"
                },
                {
                  "internalType": "string",
                  "name": "certificateAuthority",
                  "type": "string"
                },
                {
                  "internalType": "string",
                  "name": "digitalSignature",
                  "type": "string"
                },
                {
                  "internalType": "string",
                  "name": "certificateDocHash",
                  "type": "string"
                },
                {
                  "internalType": "bool",
                  "name": "isCertified",
                  "type": "bool"
                }
              ],
              "internalType": "struct BatchSupply.Batch",
              "name": "batchDetails",
              "type": "tuple"
            },
            {
              "internalType": "address",
              "name": "manufacturer",
              "type": "address"
            },
            {
              "internalType": "address",
              "name": "logisticsPartner",
              "type": "address"
            },
            {
              "internalType": "address",
              "name": "customer",
              "type": "address"
            },
            {
              "internalType": "string",
              "name": "customerName",
              "type": "string"
            },
            {
              "internalType": "string",
              "name": "customerAddress",
              "type": "string"
            },
            {
              "internalType": "string",
              "name": "customerPhoneNumber",
              "type": "string"
            },
            {
              "internalType": "string",
              "name": "customerEmail",
              "type": "string"
            },
            {
              "internalType": "string",
              "name": "deliveryStatus",
              "type": "string"
            },
            {
              "internalType": "string",
              "name": "certificateAuthority",
              "type": "string"
            },
            {
              "internalType": "string",
              "name": "digitalSignature",
              "type": "string"
            },
            {
              "internalType": "string",
              "name": "certificateDocHash",
              "type": "string"
            },
            {
              "internalType": "bool",
              "name": "isCertified",
              "type": "bool"
            },
            {
              "components": [
                {
                  "internalType": "string",
                  "name": "location",
                  "type": "string"
                },
                {
                  "internalType": "string",
                  "name": "longitude",
                  "type": "string"
                },
                {
                  "internalType": "string",
                  "name": "latitude",
                  "type": "string"
                },
                {
                  "internalType": "uint256",
                  "name": "checkInTime",
                  "type": "uint256"
                },
                {
                  "internalType": "uint256",
                  "name": "checkOutTime",
                  "type": "uint256"
                }
              ],
              "internalType": "struct BatchSupply.Checkpoint[]",
              "name": "checkpoints",
              "type": "tuple[]"
            }
          ],
          "internalType": "struct BatchSupply.Product",
          "name": "",
          "type": "tuple"
        }
      ],
      "stateMutability": "view",
      "type": "function",
      "constant": true
    },
    {
      "inputs": [],
      "name": "getAllProductIds",
      "outputs": [
        {
          "internalType": "uint256[]",
          "name": "",
          "type": "uint256[]"
        }
      ],
      "stateMutability": "view",
      "type": "function",
      "constant": true
    },
    {
      "inputs": [],
      "name": "getAllBatchIds",
      "outputs": [
        {
          "internalType": "uint256[]",
          "name": "",
          "type": "uint256[]"
        }
      ],
      "stateMutability": "view",
      "type": "function",
      "constant": true
    },
    {
      "inputs": [
        {
          "internalType": "uint256",
          "name": "_productId",
          "type": "uint256"
        }
      ],
      "name": "getCheckpoints",
      "outputs": [
        {
          "internalType": "string[]",
          "name": "locations",
          "type": "string[]"
        },
        {
          "internalType": "string[]",
          "name": "longitudes",
          "type": "string[]"
        },
        {
          "internalType": "string[]",
          "name": "latitudes",
          "type": "string[]"
        },
        {
          "internalType": "uint256[]",
          "name": "checkInTimes",
          "type": "uint256[]"
        },
        {
          "internalType": "uint256[]",
          "name": "checkOutTimes",
          "type": "uint256[]"
        }
      ],
      "stateMutability": "view",
      "type": "function",
      "constant": true
    },
    {
      "inputs": [
        {
          "internalType": "uint256",
          "name": "_productId",
          "type": "uint256"
        }
      ],
      "name": "getCustomerDetails",
      "outputs": [
        {
          "internalType": "string",
          "name": "customerName",
          "type": "string"
        },
        {
          "internalType": "string",
          "name": "customerAddress",
          "type": "string"
        },
        {
          "internalType": "string",
          "name": "customerPhoneNumber",
          "type": "string"
        },
        {
          "internalType": "string",
          "name": "customerEmail",
          "type": "string"
        }
      ],
      "stateMutability": "view",
      "type": "function",
      "constant": true
    }
  ],
  "bytecode": "0x608060405234801561001057600080fd5b506152c6806100206000396000f3fe608060405234801561001057600080fd5b50600436106100e95760003560e01c80636897591c1161008c578063b9db15b411610066578063b9db15b41461024b578063bce069471461027b578063e3a8cc9014610299578063f1068a9d146102b5576100e9565b80636897591c146101df5780637fbb2897146102135780639f0c99531461022f576100e9565b80632c4ae716116100c85780632c4ae716146101425780635ac4428214610175578063663c01af146101a5578063675b1ae2146101c3576100e9565b8062ab27a5146100ee57806308915fec1461010a5780630a45a46814610126575b600080fd5b6101086004803603810190610103919061385e565b6102d1565b005b610124600480360381019061011f9190613723565b6104eb565b005b610140600480360381019061013b919061375f565b61079e565b005b61015c600480360381019061015791906136fa565b61096b565b60405161016c94939291906149e8565b60405180910390f35b61018f600480360381019061018a91906136fa565b610c32565b60405161019c9190614c49565b60405180910390f35b6101ad61125f565b6040516101ba91906149c6565b60405180910390f35b6101dd60048036038101906101d89190613a71565b6112b7565b005b6101f960048036038101906101f491906136fa565b61141e565b60405161020a959493929190614950565b60405180910390f35b61022d600480360381019061022891906136fa565b611ab0565b005b610249600480360381019061024491906137b3565b611cb8565b005b610265600480360381019061026091906136fa565b611e61565b6040516102729190614c6b565b60405180910390f35b610283612c8f565b60405161029091906149c6565b60405180910390f35b6102b360048036038101906102ae919061392f565b612ce7565b005b6102cf60048036038101906102ca9190613aad565b612ed6565b005b60006001600088815260200190815260200160002060000154141561032b576040517f08c379a000000000000000000000000000000000000000000000000000000000815260040161032290614ac9565b60405180910390fd5b3373ffffffffffffffffffffffffffffffffffffffff166001600088815260200190815260200160002060100160009054906101000a900473ffffffffffffffffffffffffffffffffffffffff1673ffffffffffffffffffffffffffffffffffffffff16146103cf576040517f08c379a00000000000000000000000000000000000000000000000000000000081526004016103c690614be9565b60405180910390fd5b60016000878152602001908152602001600020601b016040518060a0016040528087815260200186815260200185815260200184815260200183815250908060018154018082558091505060019003906000526020600020906005020160009091909190915060008201518160000190805190602001906104519291906133f1565b50602082015181600101908051906020019061046e9291906133f1565b50604082015181600201908051906020019061048b9291906133f1565b50606082015181600301556080820151816004015550507f3f655e10613e949cf401464bec1b8e8925a64813676ff318d9230d42b8eb6c5e8686868686866040516104db96959493929190614d39565b60405180910390a1505050505050565b600060016000848152602001908152602001600020600001541415610545576040517f08c379a000000000000000000000000000000000000000000000000000000000815260040161053c90614ac9565b60405180910390fd5b3373ffffffffffffffffffffffffffffffffffffffff166000806001600086815260200190815260200160002060010154815260200190815260200160002060080160009054906101000a900473ffffffffffffffffffffffffffffffffffffffff1673ffffffffffffffffffffffffffffffffffffffff16146105fe576040517f08c379a00000000000000000000000000000000000000000000000000000000081526004016105f590614a49565b60405180910390fd5b600060016000848152602001908152602001600020601601805461062190615149565b90501415610664576040517f08c379a000000000000000000000000000000000000000000000000000000000815260040161065b90614bc9565b60405180910390fd5b6040518060400160405280600981526020017f64656c697665726564000000000000000000000000000000000000000000000081525080519060200120600160008481526020019081526020016000206016016040516106c49190614939565b60405180910390201461070c576040517f08c379a000000000000000000000000000000000000000000000000000000000815260040161070390614b49565b60405180910390fd5b806001600084815260200190815260200160002060110160006101000a81548173ffffffffffffffffffffffffffffffffffffffff021916908373ffffffffffffffffffffffffffffffffffffffff1602179055507fdcd866eb2eb01842d6640711672f624703e64d531e876b998c14df33c6dfc8588282604051610792929190614c8d565b60405180910390a15050565b6000600160008481526020019081526020016000206000015414156107f8576040517f08c379a00000000000000000000000000000000000000000000000000000000081526004016107ef90614ac9565b60405180910390fd5b3373ffffffffffffffffffffffffffffffffffffffff166001600084815260200190815260200160002060100160009054906101000a900473ffffffffffffffffffffffffffffffffffffffff1673ffffffffffffffffffffffffffffffffffffffff161461089c576040517f08c379a000000000000000000000000000000000000000000000000000000000815260040161089390614c29565b60405180910390fd5b60006001600084815260200190815260200160002060160180546108bf90615149565b905014610901576040517f08c379a00000000000000000000000000000000000000000000000000000000081526004016108f890614b69565b60405180910390fd5b8060016000848152602001908152602001600020601601908051906020019061092b9291906133f1565b507fb9a45c037b71fd1dcacdab5540bca4d87614bd70b4fc430f919cec227d1475b982823360405161095f93929190614cb6565b60405180910390a15050565b6060806060806000600160008781526020019081526020016000206000015414156109cb576040517f08c379a00000000000000000000000000000000000000000000000000000000081526004016109c290614ac9565b60405180910390fd5b6000600160008781526020019081526020016000209050806012018160130182601401836015018380546109fe90615149565b80601f0160208091040260200160405190810160405280929190818152602001828054610a2a90615149565b8015610a775780601f10610a4c57610100808354040283529160200191610a77565b820191906000526020600020905b815481529060010190602001808311610a5a57829003601f168201915b50505050509350828054610a8a90615149565b80601f0160208091040260200160405190810160405280929190818152602001828054610ab690615149565b8015610b035780601f10610ad857610100808354040283529160200191610b03565b820191906000526020600020905b815481529060010190602001808311610ae657829003601f168201915b50505050509250818054610b1690615149565b80601f0160208091040260200160405190810160405280929190818152602001828054610b4290615149565b8015610b8f5780601f10610b6457610100808354040283529160200191610b8f565b820191906000526020600020905b815481529060010190602001808311610b7257829003601f168201915b50505050509150808054610ba290615149565b80601f0160208091040260200160405190810160405280929190818152602001828054610bce90615149565b8015610c1b5780601f10610bf057610100808354040283529160200191610c1b565b820191906000526020600020905b815481529060010190602001808311610bfe57829003601f168201915b505050505090509450945094509450509193509193565b610c3a613477565b6000806000848152602001908152602001600020600001541415610c93576040517f08c379a0000000000000000000000000000000000000000000000000000000008152600401610c8a90614a89565b60405180910390fd5b600080838152602001908152602001600020604051806101a001604052908160008201548152602001600182018054610ccb90615149565b80601f0160208091040260200160405190810160405280929190818152602001828054610cf790615149565b8015610d445780601f10610d1957610100808354040283529160200191610d44565b820191906000526020600020905b815481529060010190602001808311610d2757829003601f168201915b5050505050815260200160028201548152602001600382018054610d6790615149565b80601f0160208091040260200160405190810160405280929190818152602001828054610d9390615149565b8015610de05780601f10610db557610100808354040283529160200191610de0565b820191906000526020600020905b815481529060010190602001808311610dc357829003601f168201915b50505050508152602001600482018054610df990615149565b80601f0160208091040260200160405190810160405280929190818152602001828054610e2590615149565b8015610e725780601f10610e4757610100808354040283529160200191610e72565b820191906000526020600020905b815481529060010190602001808311610e5557829003601f168201915b50505050508152602001600582018054610e8b90615149565b80601f0160208091040260200160405190810160405280929190818152602001828054610eb790615149565b8015610f045780601f10610ed957610100808354040283529160200191610f04565b820191906000526020600020905b815481529060010190602001808311610ee757829003601f168201915b50505050508152602001600682018054610f1d90615149565b80601f0160208091040260200160405190810160405280929190818152602001828054610f4990615149565b8015610f965780601f10610f6b57610100808354040283529160200191610f96565b820191906000526020600020905b815481529060010190602001808311610f7957829003601f168201915b50505050508152602001600782018054610faf90615149565b80601f0160208091040260200160405190810160405280929190818152602001828054610fdb90615149565b80156110285780601f10610ffd57610100808354040283529160200191611028565b820191906000526020600020905b81548152906001019060200180831161100b57829003601f168201915b505050505081526020016008820160009054906101000a900473ffffffffffffffffffffffffffffffffffffffff1673ffffffffffffffffffffffffffffffffffffffff1673ffffffffffffffffffffffffffffffffffffffff16815260200160098201805461109790615149565b80601f01602080910402602001604051908101604052809291908181526020018280546110c390615149565b80156111105780601f106110e557610100808354040283529160200191611110565b820191906000526020600020905b8154815290600101906020018083116110f357829003601f168201915b50505050508152602001600a8201805461112990615149565b80601f016020809104026020016040519081016040528092919081815260200182805461115590615149565b80156111a25780601f10611177576101008083540402835291602001916111a2565b820191906000526020600020905b81548152906001019060200180831161118557829003601f168201915b50505050508152602001600b820180546111bb90615149565b80601f01602080910402602001604051908101604052809291908181526020018280546111e790615149565b80156112345780601f1061120957610100808354040283529160200191611234565b820191906000526020600020905b81548152906001019060200180831161121757829003601f168201915b50505050508152602001600c820160009054906101000a900460ff1615151515815250509050919050565b606060038054806020026020016040519081016040528092919081815260200182805480156112ad57602002820191906000526020600020905b815481526020019060010190808311611299575b5050505050905090565b6000806000848152602001908152602001600020600001541415611310576040517f08c379a000000000000000000000000000000000000000000000000000000000815260040161130790614b09565b60405180910390fd5b60006001600083815260200190815260200160002060000154141561136a576040517f08c379a000000000000000000000000000000000000000000000000000000000815260040161136190614ac9565b60405180910390fd5b8160016000838152602001908152602001600020600101819055507fe044eca2a00f9b8a4e27302e39d5618720ffe3a1413b6c8b8a9cff9f120607cd81836001600085815260200190815260200160002060120160016000868152602001908152602001600020601301600160008781526020019081526020016000206014016001600088815260200190815260200160002060150160405161141296959493929190614ed4565b60405180910390a15050565b6060806060806060600060016000888152602001908152602001600020600001541415611480576040517f08c379a000000000000000000000000000000000000000000000000000000000815260040161147790614ac9565b60405180910390fd5b600060016000888152602001908152602001600020601b018054905090508067ffffffffffffffff8111156114de577f4e487b7100000000000000000000000000000000000000000000000000000000600052604160045260246000fd5b60405190808252806020026020018201604052801561151157816020015b60608152602001906001900390816114fc5790505b5095508067ffffffffffffffff811115611554577f4e487b7100000000000000000000000000000000000000000000000000000000600052604160045260246000fd5b60405190808252806020026020018201604052801561158757816020015b60608152602001906001900390816115725790505b5094508067ffffffffffffffff8111156115ca577f4e487b7100000000000000000000000000000000000000000000000000000000600052604160045260246000fd5b6040519080825280602002602001820160405280156115fd57816020015b60608152602001906001900390816115e85790505b5093508067ffffffffffffffff811115611640577f4e487b7100000000000000000000000000000000000000000000000000000000600052604160045260246000fd5b60405190808252806020026020018201604052801561166e5781602001602082028036833780820191505090505b5092508067ffffffffffffffff8111156116b1577f4e487b7100000000000000000000000000000000000000000000000000000000600052604160045260246000fd5b6040519080825280602002602001820160405280156116df5781602001602082028036833780820191505090505b50915060005b81811015611aa5576000600160008a8152602001908152602001600020601b01828154811061173d577f4e487b7100000000000000000000000000000000000000000000000000000000600052603260045260246000fd5b90600052602060002090600502016040518060a001604052908160008201805461176690615149565b80601f016020809104026020016040519081016040528092919081815260200182805461179290615149565b80156117df5780601f106117b4576101008083540402835291602001916117df565b820191906000526020600020905b8154815290600101906020018083116117c257829003601f168201915b505050505081526020016001820180546117f890615149565b80601f016020809104026020016040519081016040528092919081815260200182805461182490615149565b80156118715780601f1061184657610100808354040283529160200191611871565b820191906000526020600020905b81548152906001019060200180831161185457829003601f168201915b5050505050815260200160028201805461188a90615149565b80601f01602080910402602001604051908101604052809291908181526020018280546118b690615149565b80156119035780601f106118d857610100808354040283529160200191611903565b820191906000526020600020905b8154815290600101906020018083116118e657829003601f168201915b505050505081526020016003820154815260200160048201548152505090508060000151888381518110611960577f4e487b7100000000000000000000000000000000000000000000000000000000600052603260045260246000fd5b602002602001018190525080602001518783815181106119a9577f4e487b7100000000000000000000000000000000000000000000000000000000600052603260045260246000fd5b602002602001018190525080604001518683815181106119f2577f4e487b7100000000000000000000000000000000000000000000000000000000600052603260045260246000fd5b60200260200101819052508060600151858381518110611a3b577f4e487b7100000000000000000000000000000000000000000000000000000000600052603260045260246000fd5b6020026020010181815250508060800151848381518110611a85577f4e487b7100000000000000000000000000000000000000000000000000000000600052603260045260246000fd5b602002602001018181525050508080611a9d9061517b565b9150506116e5565b505091939590929450565b600060016000838152602001908152602001600020600001541415611b0a576040517f08c379a0000000000000000000000000000000000000000000000000000000008152600401611b0190614ac9565b60405180910390fd5b60008060016000848152602001908152602001600020600101548152602001908152602001600020600c0160009054906101000a900460ff16611b82576040517f08c379a0000000000000000000000000000000000000000000000000000000008152600401611b7990614a69565b60405180910390fd5b600073ffffffffffffffffffffffffffffffffffffffff166001600083815260200190815260200160002060100160009054906101000a900473ffffffffffffffffffffffffffffffffffffffff1673ffffffffffffffffffffffffffffffffffffffff1614611c27576040517f08c379a0000000000000000000000000000000000000000000000000000000008152600401611c1e90614c09565b60405180910390fd5b336001600083815260200190815260200160002060100160006101000a81548173ffffffffffffffffffffffffffffffffffffffff021916908373ffffffffffffffffffffffffffffffffffffffff1602179055507fc7f29f9c6ead206865112a60f0079e653c03500108e28ed5ce3a092634a0f01d8133604051611cad929190614c8d565b60405180910390a150565b6000806000868152602001908152602001600020600001541415611d11576040517f08c379a0000000000000000000000000000000000000000000000000000000008152600401611d0890614b09565b60405180910390fd5b600080858152602001908152602001600020600c0160009054906101000a900460ff1615611d74576040517f08c379a0000000000000000000000000000000000000000000000000000000008152600401611d6b90614ba9565b60405180910390fd5b826000808681526020019081526020016000206009019080519060200190611d9d9291906133f1565b5081600080868152602001908152602001600020600a019080519060200190611dc79291906133f1565b5080600080868152602001908152602001600020600b019080519060200190611df19291906133f1565b506001600080868152602001908152602001600020600c0160006101000a81548160ff0219169083151502179055507f4cd6dd5fd822b4465ac06af6fdaf0b36a1e015b025103cd40df2d3b077b2ca3d848483604051611e5393929190614cf4565b60405180910390a150505050565b611e696134f7565b600060016000848152602001908152602001600020600001541415611ec3576040517f08c379a0000000000000000000000000000000000000000000000000000000008152600401611eba90614ae9565b60405180910390fd5b6001600083815260200190815260200160002060405180610200016040529081600082015481526020016001820154815260200160028201604051806101a001604052908160008201548152602001600182018054611f2190615149565b80601f0160208091040260200160405190810160405280929190818152602001828054611f4d90615149565b8015611f9a5780601f10611f6f57610100808354040283529160200191611f9a565b820191906000526020600020905b815481529060010190602001808311611f7d57829003601f168201915b5050505050815260200160028201548152602001600382018054611fbd90615149565b80601f0160208091040260200160405190810160405280929190818152602001828054611fe990615149565b80156120365780601f1061200b57610100808354040283529160200191612036565b820191906000526020600020905b81548152906001019060200180831161201957829003601f168201915b5050505050815260200160048201805461204f90615149565b80601f016020809104026020016040519081016040528092919081815260200182805461207b90615149565b80156120c85780601f1061209d576101008083540402835291602001916120c8565b820191906000526020600020905b8154815290600101906020018083116120ab57829003601f168201915b505050505081526020016005820180546120e190615149565b80601f016020809104026020016040519081016040528092919081815260200182805461210d90615149565b801561215a5780601f1061212f5761010080835404028352916020019161215a565b820191906000526020600020905b81548152906001019060200180831161213d57829003601f168201915b5050505050815260200160068201805461217390615149565b80601f016020809104026020016040519081016040528092919081815260200182805461219f90615149565b80156121ec5780601f106121c1576101008083540402835291602001916121ec565b820191906000526020600020905b8154815290600101906020018083116121cf57829003601f168201915b5050505050815260200160078201805461220590615149565b80601f016020809104026020016040519081016040528092919081815260200182805461223190615149565b801561227e5780601f106122535761010080835404028352916020019161227e565b820191906000526020600020905b81548152906001019060200180831161226157829003601f168201915b505050505081526020016008820160009054906101000a900473ffffffffffffffffffffffffffffffffffffffff1673ffffffffffffffffffffffffffffffffffffffff1673ffffffffffffffffffffffffffffffffffffffff1681526020016009820180546122ed90615149565b80601f016020809104026020016040519081016040528092919081815260200182805461231990615149565b80156123665780601f1061233b57610100808354040283529160200191612366565b820191906000526020600020905b81548152906001019060200180831161234957829003601f168201915b50505050508152602001600a8201805461237f90615149565b80601f01602080910402602001604051908101604052809291908181526020018280546123ab90615149565b80156123f85780601f106123cd576101008083540402835291602001916123f8565b820191906000526020600020905b8154815290600101906020018083116123db57829003601f168201915b50505050508152602001600b8201805461241190615149565b80601f016020809104026020016040519081016040528092919081815260200182805461243d90615149565b801561248a5780601f1061245f5761010080835404028352916020019161248a565b820191906000526020600020905b81548152906001019060200180831161246d57829003601f168201915b50505050508152602001600c820160009054906101000a900460ff1615151515815250508152602001600f820160009054906101000a900473ffffffffffffffffffffffffffffffffffffffff1673ffffffffffffffffffffffffffffffffffffffff1673ffffffffffffffffffffffffffffffffffffffff1681526020016010820160009054906101000a900473ffffffffffffffffffffffffffffffffffffffff1673ffffffffffffffffffffffffffffffffffffffff1673ffffffffffffffffffffffffffffffffffffffff1681526020016011820160009054906101000a900473ffffffffffffffffffffffffffffffffffffffff1673ffffffffffffffffffffffffffffffffffffffff1673ffffffffffffffffffffffffffffffffffffffff1681526020016012820180546125c490615149565b80601f01602080910402602001604051908101604052809291908181526020018280546125f090615149565b801561263d5780601f106126125761010080835404028352916020019161263d565b820191906000526020600020905b81548152906001019060200180831161262057829003601f168201915b5050505050815260200160138201805461265690615149565b80601f016020809104026020016040519081016040528092919081815260200182805461268290615149565b80156126cf5780601f106126a4576101008083540402835291602001916126cf565b820191906000526020600020905b8154815290600101906020018083116126b257829003601f168201915b505050505081526020016014820180546126e890615149565b80601f016020809104026020016040519081016040528092919081815260200182805461271490615149565b80156127615780601f1061273657610100808354040283529160200191612761565b820191906000526020600020905b81548152906001019060200180831161274457829003601f168201915b5050505050815260200160158201805461277a90615149565b80601f01602080910402602001604051908101604052809291908181526020018280546127a690615149565b80156127f35780601f106127c8576101008083540402835291602001916127f3565b820191906000526020600020905b8154815290600101906020018083116127d657829003601f168201915b5050505050815260200160168201805461280c90615149565b80601f016020809104026020016040519081016040528092919081815260200182805461283890615149565b80156128855780601f1061285a57610100808354040283529160200191612885565b820191906000526020600020905b81548152906001019060200180831161286857829003601f168201915b5050505050815260200160178201805461289e90615149565b80601f01602080910402602001604051908101604052809291908181526020018280546128ca90615149565b80156129175780601f106128ec57610100808354040283529160200191612917565b820191906000526020600020905b8154815290600101906020018083116128fa57829003601f168201915b5050505050815260200160188201805461293090615149565b80601f016020809104026020016040519081016040528092919081815260200182805461295c90615149565b80156129a95780601f1061297e576101008083540402835291602001916129a9565b820191906000526020600020905b81548152906001019060200180831161298c57829003601f168201915b505050505081526020016019820180546129c290615149565b80601f01602080910402602001604051908101604052809291908181526020018280546129ee90615149565b8015612a3b5780601f10612a1057610100808354040283529160200191612a3b565b820191906000526020600020905b815481529060010190602001808311612a1e57829003601f168201915b50505050508152602001601a820160009054906101000a900460ff16151515158152602001601b8201805480602002602001604051908101604052809291908181526020016000905b82821015612c8057838290600052602060002090600502016040518060a0016040529081600082018054612ab790615149565b80601f0160208091040260200160405190810160405280929190818152602001828054612ae390615149565b8015612b305780601f10612b0557610100808354040283529160200191612b30565b820191906000526020600020905b815481529060010190602001808311612b1357829003601f168201915b50505050508152602001600182018054612b4990615149565b80601f0160208091040260200160405190810160405280929190818152602001828054612b7590615149565b8015612bc25780601f10612b9757610100808354040283529160200191612bc2565b820191906000526020600020905b815481529060010190602001808311612ba557829003601f168201915b50505050508152602001600282018054612bdb90615149565b80601f0160208091040260200160405190810160405280929190818152602001828054612c0790615149565b8015612c545780601f10612c2957610100808354040283529160200191612c54565b820191906000526020600020905b815481529060010190602001808311612c3757829003601f168201915b505050505081526020016003820154815260200160048201548152505081526020019060010190612a84565b50505050815250509050919050565b60606002805480602002602001604051908101604052809291908181526020018280548015612cdd57602002820191906000526020600020905b815481526020019060010190808311612cc9575b5050505050905090565b60008060008a81526020019081526020016000206000015414612d3f576040517f08c379a0000000000000000000000000000000000000000000000000000000008152600401612d3690614b29565b60405180910390fd5b60008060008a8152602001908152602001600020905088816000018190555087816001019080519060200190612d769291906133f1565b5086816002018190555085816003019080519060200190612d989291906133f1565b5084816004019080519060200190612db19291906133f1565b5083816005019080519060200190612dca9291906133f1565b5082816006019080519060200190612de39291906133f1565b5081816007019080519060200190612dfc9291906133f1565b50338160080160006101000a81548173ffffffffffffffffffffffffffffffffffffffff021916908373ffffffffffffffffffffffffffffffffffffffff160217905550600081600c0160006101000a81548160ff02191690831515021790555060028990806001815401808255809150506001900390600052602060002001600090919091909150557faf820e93c9946dd0613206513f95d4f25602997fba1553c68d8ca3ae32e8568f8989898989898989604051612ec3989796959493929190614daf565b60405180910390a1505050505050505050565b6000600160008881526020019081526020016000206000015414612f2f576040517f08c379a0000000000000000000000000000000000000000000000000000000008152600401612f2690614b89565b60405180910390fd5b6000806000878152602001908152602001600020600001541415612f88576040517f08c379a0000000000000000000000000000000000000000000000000000000008152600401612f7f90614aa9565b60405180910390fd5b600060016000888152602001908152602001600020905086816000018190555085816001018190555060008087815260200190815260200160002081600201600082015481600001556001820181600101908054612fe590615149565b612ff09291906135be565b5060028201548160020155600382018160030190805461300f90615149565b61301a9291906135be565b50600482018160040190805461302f90615149565b61303a9291906135be565b50600582018160050190805461304f90615149565b61305a9291906135be565b50600682018160060190805461306f90615149565b61307a9291906135be565b50600782018160070190805461308f90615149565b61309a9291906135be565b506008820160009054906101000a900473ffffffffffffffffffffffffffffffffffffffff168160080160006101000a81548173ffffffffffffffffffffffffffffffffffffffff021916908373ffffffffffffffffffffffffffffffffffffffff160217905550600982018160090190805461311690615149565b6131219291906135be565b50600a820181600a0190805461313690615149565b6131419291906135be565b50600b820181600b0190805461315690615149565b6131619291906135be565b50600c820160009054906101000a900460ff1681600c0160006101000a81548160ff0219169083151502179055509050503381600f0160006101000a81548173ffffffffffffffffffffffffffffffffffffffff021916908373ffffffffffffffffffffffffffffffffffffffff16021790555060008160100160006101000a81548173ffffffffffffffffffffffffffffffffffffffff021916908373ffffffffffffffffffffffffffffffffffffffff16021790555060008160110160006101000a81548173ffffffffffffffffffffffffffffffffffffffff021916908373ffffffffffffffffffffffffffffffffffffffff160217905550848160120190805190602001906132759291906133f1565b508381601301908051906020019061328e9291906133f1565b50828160140190805190602001906132a79291906133f1565b50818160150190805190602001906132c09291906133f1565b50604051806020016040528060008152508160160190805190602001906132e89291906133f1565b50604051806020016040528060008152508160170190805190602001906133109291906133f1565b50604051806020016040528060008152508160180190805190602001906133389291906133f1565b50604051806020016040528060008152508160190190805190602001906133609291906133f1565b50600081601a0160006101000a81548160ff02191690831515021790555060038790806001815401808255809150506001900390600052602060002001600090919091909150557fe044eca2a00f9b8a4e27302e39d5618720ffe3a1413b6c8b8a9cff9f120607cd8787878787876040516133e096959493929190614e57565b60405180910390a150505050505050565b8280546133fd90615149565b90600052602060002090601f01602090048101928261341f5760008555613466565b82601f1061343857805160ff1916838001178555613466565b82800160010185558215613466579182015b8281111561346557825182559160200191906001019061344a565b5b509050613473919061364b565b5090565b604051806101a001604052806000815260200160608152602001600081526020016060815260200160608152602001606081526020016060815260200160608152602001600073ffffffffffffffffffffffffffffffffffffffff1681526020016060815260200160608152602001606081526020016000151581525090565b6040518061020001604052806000815260200160008152602001613519613477565b8152602001600073ffffffffffffffffffffffffffffffffffffffff168152602001600073ffffffffffffffffffffffffffffffffffffffff168152602001600073ffffffffffffffffffffffffffffffffffffffff1681526020016060815260200160608152602001606081526020016060815260200160608152602001606081526020016060815260200160608152602001600015158152602001606081525090565b8280546135ca90615149565b90600052602060002090601f0160209004810192826135ec576000855561363a565b82601f106135fd578054855561363a565b8280016001018555821561363a57600052602060002091601f016020900482015b8281111561363957825482559160010191906001019061361e565b5b509050613647919061364b565b5090565b5b8082111561366457600081600090555060010161364c565b5090565b600061367b61367684614f82565b614f51565b90508281526020810184848401111561369357600080fd5b61369e848285615107565b509392505050565b6000813590506136b581615262565b92915050565b600082601f8301126136cc57600080fd5b81356136dc848260208601613668565b91505092915050565b6000813590506136f481615279565b92915050565b60006020828403121561370c57600080fd5b600061371a848285016136e5565b91505092915050565b6000806040838503121561373657600080fd5b6000613744858286016136e5565b9250506020613755858286016136a6565b9150509250929050565b6000806040838503121561377257600080fd5b6000613780858286016136e5565b925050602083013567ffffffffffffffff81111561379d57600080fd5b6137a9858286016136bb565b9150509250929050565b600080600080608085870312156137c957600080fd5b60006137d7878288016136e5565b945050602085013567ffffffffffffffff8111156137f457600080fd5b613800878288016136bb565b935050604085013567ffffffffffffffff81111561381d57600080fd5b613829878288016136bb565b925050606085013567ffffffffffffffff81111561384657600080fd5b613852878288016136bb565b91505092959194509250565b60008060008060008060c0878903121561387757600080fd5b600061388589828a016136e5565b965050602087013567ffffffffffffffff8111156138a257600080fd5b6138ae89828a016136bb565b955050604087013567ffffffffffffffff8111156138cb57600080fd5b6138d789828a016136bb565b945050606087013567ffffffffffffffff8111156138f457600080fd5b61390089828a016136bb565b935050608061391189828a016136e5565b92505060a061392289828a016136e5565b9150509295509295509295565b600080600080600080600080610100898b03121561394c57600080fd5b600061395a8b828c016136e5565b985050602089013567ffffffffffffffff81111561397757600080fd5b6139838b828c016136bb565b97505060406139948b828c016136e5565b965050606089013567ffffffffffffffff8111156139b157600080fd5b6139bd8b828c016136bb565b955050608089013567ffffffffffffffff8111156139da57600080fd5b6139e68b828c016136bb565b94505060a089013567ffffffffffffffff811115613a0357600080fd5b613a0f8b828c016136bb565b93505060c089013567ffffffffffffffff811115613a2c57600080fd5b613a388b828c016136bb565b92505060e089013567ffffffffffffffff811115613a5557600080fd5b613a618b828c016136bb565b9150509295985092959890939650565b60008060408385031215613a8457600080fd5b6000613a92858286016136e5565b9250506020613aa3858286016136e5565b9150509250929050565b60008060008060008060c08789031215613ac657600080fd5b6000613ad489828a016136e5565b9650506020613ae589828a016136e5565b955050604087013567ffffffffffffffff811115613b0257600080fd5b613b0e89828a016136bb565b945050606087013567ffffffffffffffff811115613b2b57600080fd5b613b3789828a016136bb565b935050608087013567ffffffffffffffff811115613b5457600080fd5b613b6089828a016136bb565b92505060a087013567ffffffffffffffff811115613b7d57600080fd5b613b8989828a016136bb565b9150509295509295509295565b6000613ba28383613dca565b905092915050565b6000613bb68383614700565b905092915050565b6000613bca838361491b565b60208301905092915050565b613bdf816150bf565b82525050565b613bee816150bf565b82525050565b6000613bff8261500c565b613c09818561505f565b935083602082028501613c1b85614fb2565b8060005b85811015613c575784840389528151613c388582613b96565b9450613c4383615038565b925060208a01995050600181019050613c1f565b50829750879550505050505092915050565b6000613c7482615017565b613c7e8185615070565b935083602082028501613c9085614fc2565b8060005b85811015613ccc5784840389528151613cad8582613baa565b9450613cb883615045565b925060208a01995050600181019050613c94565b50829750879550505050505092915050565b6000613ce982615022565b613cf38185615081565b9350613cfe83614fd2565b8060005b83811015613d2f578151613d168882613bbe565b9750613d2183615052565b925050600181019050613d02565b5085935050505092915050565b613d45816150d1565b82525050565b60008154613d5881615149565b613d628186615092565b94506001821660008114613d7d5760018114613d8e57613dc1565b60ff19831686528186019350613dc1565b613d9785614fe2565b60005b83811015613db957815481890152600182019150602081019050613d9a565b838801955050505b50505092915050565b6000613dd58261502d565b613ddf818561509d565b9350613def818560208601615116565b613df881615251565b840191505092915050565b6000613e0e8261502d565b613e1881856150ae565b9350613e28818560208601615116565b613e3181615251565b840191505092915050565b60008154613e4981615149565b613e5381866150ae565b94506001821660008114613e6e5760018114613e8057613eb3565b60ff1983168652602086019350613eb3565b613e8985614ff7565b60005b83811015613eab57815481890152600182019150602081019050613e8c565b808801955050505b50505092915050565b6000613ec9603b836150ae565b91507f4f6e6c7920746865206d616e7566616374757265722063616e2061737369676e60008301527f207468652070726f6475637420746f206120637573746f6d65722e00000000006020830152604082019050919050565b6000613f2f603b836150ae565b91507f50726f64756374206261746368206d757374206265206365727469666965642060008301527f6265666f72652061737369676e696e67206120636f75726965722e00000000006020830152604082019050919050565b6000613f956010836150ae565b91507f4261746368206e6f7420666f756e642e000000000000000000000000000000006000830152602082019050919050565b6000613fd56022836150ae565b91507f42617463682077697468207468697320494420646f6573206e6f74206578697360008301527f742e0000000000000000000000000000000000000000000000000000000000006020830152604082019050919050565b600061403b6017836150ae565b91507f50726f6475637420646f6573206e6f742065786973742e0000000000000000006000830152602082019050919050565b600061407b6012836150ae565b91507f50726f64756374206e6f7420666f756e642e00000000000000000000000000006000830152602082019050919050565b60006140bb6015836150ae565b91507f426174636820646f6573206e6f742065786973742e00000000000000000000006000830152602082019050919050565b60006140fb6022836150ae565b91507f42617463682077697468207468697320494420616c726561647920657869737460008301527f732e0000000000000000000000000000000000000000000000000000000000006020830152604082019050919050565b6000614161602c836150ae565b91507f50726f64756374206d7573742062652064656c697665726564206265666f726560008301527f2061737369676e6d656e742e00000000000000000000000000000000000000006020830152604082019050919050565b60006141c76023836150ae565b91507f50726f647563742068617320616c7265616479206265656e2064656c6976657260008301527f65642e00000000000000000000000000000000000000000000000000000000006020830152604082019050919050565b600061422d6024836150ae565b91507f50726f647563742077697468207468697320494420616c72656164792065786960008301527f7374732e000000000000000000000000000000000000000000000000000000006020830152604082019050919050565b6000614293601b836150ae565b91507f426174636820697320616c7265616479206365727469666965642e00000000006000830152602082019050919050565b60006142d36037836150ae565b91507f50726f64756374206d7573742062652064656c697665726564206265666f726560008301527f2061737369676e696e6720746f20637573746f6d65722e0000000000000000006020830152604082019050919050565b60006143396038836150ae565b91507f4f6e6c79207468652061737369676e6564206c6f67697374696373207061727460008301527f6e65722063616e2061646420636865636b706f696e74732e00000000000000006020830152604082019050919050565b600061439f6030836150ae565b91507f50726f6475637420616c72656164792061737369676e656420746f2061206c6f60008301527f6769737469637320706172746e65722e000000000000000000000000000000006020830152604082019050919050565b6000614405603a836150ae565b91507f4f6e6c79207468652061737369676e6564206c6f67697374696373207061727460008301527f6e65722063616e206d61726b2061732064656c6976657265642e0000000000006020830152604082019050919050565b60006101a083016000830151614477600086018261491b565b506020830151848203602086015261448f8282613dca565b91505060408301516144a4604086018261491b565b50606083015184820360608601526144bc8282613dca565b915050608083015184820360808601526144d68282613dca565b91505060a083015184820360a08601526144f08282613dca565b91505060c083015184820360c086015261450a8282613dca565b91505060e083015184820360e08601526145248282613dca565b91505061010083015161453b610100860182613bd6565b506101208301518482036101208601526145558282613dca565b9150506101408301518482036101408601526145718282613dca565b91505061016083015184820361016086015261458d8282613dca565b9150506101808301516145a4610180860182613d3c565b508091505092915050565b60006101a0830160008301516145c8600086018261491b565b50602083015184820360208601526145e08282613dca565b91505060408301516145f5604086018261491b565b506060830151848203606086015261460d8282613dca565b915050608083015184820360808601526146278282613dca565b91505060a083015184820360a08601526146418282613dca565b91505060c083015184820360c086015261465b8282613dca565b91505060e083015184820360e08601526146758282613dca565b91505061010083015161468c610100860182613bd6565b506101208301518482036101208601526146a68282613dca565b9150506101408301518482036101408601526146c28282613dca565b9150506101608301518482036101608601526146de8282613dca565b9150506101808301516146f5610180860182613d3c565b508091505092915050565b600060a083016000830151848203600086015261471d8282613dca565b915050602083015184820360208601526147378282613dca565b915050604083015184820360408601526147518282613dca565b9150506060830151614766606086018261491b565b506080830151614779608086018261491b565b508091505092915050565b60006102008301600083015161479d600086018261491b565b5060208301516147b0602086018261491b565b50604083015184820360408601526147c8828261445e565b91505060608301516147dd6060860182613bd6565b5060808301516147f06080860182613bd6565b5060a083015161480360a0860182613bd6565b5060c083015184820360c086015261481b8282613dca565b91505060e083015184820360e08601526148358282613dca565b9150506101008301518482036101008601526148518282613dca565b91505061012083015184820361012086015261486d8282613dca565b9150506101408301518482036101408601526148898282613dca565b9150506101608301518482036101608601526148a58282613dca565b9150506101808301518482036101808601526148c18282613dca565b9150506101a08301518482036101a08601526148dd8282613dca565b9150506101c08301516148f46101c0860182613d3c565b506101e08301518482036101e086015261490e8282613c69565b9150508091505092915050565b614924816150fd565b82525050565b614933816150fd565b82525050565b60006149458284613d4b565b915081905092915050565b600060a082019050818103600083015261496a8188613bf4565b9050818103602083015261497e8187613bf4565b905081810360408301526149928186613bf4565b905081810360608301526149a68185613cde565b905081810360808301526149ba8184613cde565b90509695505050505050565b600060208201905081810360008301526149e08184613cde565b905092915050565b60006080820190508181036000830152614a028187613e03565b90508181036020830152614a168186613e03565b90508181036040830152614a2a8185613e03565b90508181036060830152614a3e8184613e03565b905095945050505050565b60006020820190508181036000830152614a6281613ebc565b9050919050565b60006020820190508181036000830152614a8281613f22565b9050919050565b60006020820190508181036000830152614aa281613f88565b9050919050565b60006020820190508181036000830152614ac281613fc8565b9050919050565b60006020820190508181036000830152614ae28161402e565b9050919050565b60006020820190508181036000830152614b028161406e565b9050919050565b60006020820190508181036000830152614b22816140ae565b9050919050565b60006020820190508181036000830152614b42816140ee565b9050919050565b60006020820190508181036000830152614b6281614154565b9050919050565b60006020820190508181036000830152614b82816141ba565b9050919050565b60006020820190508181036000830152614ba281614220565b9050919050565b60006020820190508181036000830152614bc281614286565b9050919050565b60006020820190508181036000830152614be2816142c6565b9050919050565b60006020820190508181036000830152614c028161432c565b9050919050565b60006020820190508181036000830152614c2281614392565b9050919050565b60006020820190508181036000830152614c42816143f8565b9050919050565b60006020820190508181036000830152614c6381846145af565b905092915050565b60006020820190508181036000830152614c858184614784565b905092915050565b6000604082019050614ca2600083018561492a565b614caf6020830184613be5565b9392505050565b6000606082019050614ccb600083018661492a565b8181036020830152614cdd8185613e03565b9050614cec6040830184613be5565b949350505050565b6000606082019050614d09600083018661492a565b8181036020830152614d1b8185613e03565b90508181036040830152614d2f8184613e03565b9050949350505050565b600060c082019050614d4e600083018961492a565b8181036020830152614d608188613e03565b90508181036040830152614d748187613e03565b90508181036060830152614d888186613e03565b9050614d97608083018561492a565b614da460a083018461492a565b979650505050505050565b600061010082019050614dc5600083018b61492a565b8181036020830152614dd7818a613e03565b9050614de6604083018961492a565b8181036060830152614df88188613e03565b90508181036080830152614e0c8187613e03565b905081810360a0830152614e208186613e03565b905081810360c0830152614e348185613e03565b905081810360e0830152614e488184613e03565b90509998505050505050505050565b600060c082019050614e6c600083018961492a565b614e79602083018861492a565b8181036040830152614e8b8187613e03565b90508181036060830152614e9f8186613e03565b90508181036080830152614eb38185613e03565b905081810360a0830152614ec78184613e03565b9050979650505050505050565b600060c082019050614ee9600083018961492a565b614ef6602083018861492a565b8181036040830152614f088187613e3c565b90508181036060830152614f1c8186613e3c565b90508181036080830152614f308185613e3c565b905081810360a0830152614f448184613e3c565b9050979650505050505050565b6000604051905081810181811067ffffffffffffffff82111715614f7857614f77615222565b5b8060405250919050565b600067ffffffffffffffff821115614f9d57614f9c615222565b5b601f19601f8301169050602081019050919050565b6000819050602082019050919050565b6000819050602082019050919050565b6000819050602082019050919050565b60008190508160005260206000209050919050565b60008190508160005260206000209050919050565b600081519050919050565b600081519050919050565b600081519050919050565b600081519050919050565b6000602082019050919050565b6000602082019050919050565b6000602082019050919050565b600082825260208201905092915050565b600082825260208201905092915050565b600082825260208201905092915050565b600081905092915050565b600082825260208201905092915050565b600082825260208201905092915050565b60006150ca826150dd565b9050919050565b60008115159050919050565b600073ffffffffffffffffffffffffffffffffffffffff82169050919050565b6000819050919050565b82818337600083830152505050565b60005b83811015615134578082015181840152602081019050615119565b83811115615143576000848401525b50505050565b6000600282049050600182168061516157607f821691505b60208210811415615175576151746151f3565b5b50919050565b6000615186826150fd565b91507fffffffffffffffffffffffffffffffffffffffffffffffffffffffffffffffff8214156151b9576151b86151c4565b5b600182019050919050565b7f4e487b7100000000000000000000000000000000000000000000000000000000600052601160045260246000fd5b7f4e487b7100000000000000000000000000000000000000000000000000000000600052602260045260246000fd5b7f4e487b7100000000000000000000000000000000000000000000000000000000600052604160045260246000fd5b6000601f19601f8301169050919050565b61526b816150bf565b811461527657600080fd5b50565b615282816150fd565b811461528d57600080fd5b5056fea2646970667358221220d02bb3df9225998444cd591e2435fb4dcc6e35fb662ed21becfafe594cc1729864736f6c63430008000033",
  "immutableReferences": {},
  "source": "// SPDX-License-Identifier: MIT\r\npragma solidity ^0.8.0;\r\n\r\ncontract BatchSupply {\r\n    // Define a struct for the Batch\r\n    struct Batch {\r\n        uint256 id;\r\n        string name;\r\n        uint256 price;\r\n        string manufacturerName;\r\n        string manufacturerDetails;\r\n        string longitude;\r\n        string latitude;\r\n        string category;\r\n        address manufacturer; // Store the address of the manufacturer\r\n        string certificateAuthority; // Name of the certificate provider\r\n        string digitalSignature; // Digital signature of CA\r\n        string certificateDocHash; // IPFS hash of the certificate document\r\n        bool isCertified; // Certification status\r\n    }\r\n\r\n    // Define a struct for the Product\r\n    struct Product {\r\n    uint256 id;\r\n    uint256 batchId;\r\n    Batch batchDetails;\r\n    address manufacturer;\r\n    address logisticsPartner;\r\n    address customer;\r\n    string customerName; // Customer's name\r\n    string customerAddress; // Customer's address\r\n    string customerPhoneNumber; // Customer's phone number\r\n    string customerEmail; // Customer's email\r\n    string deliveryStatus;\r\n    string certificateAuthority;\r\n    string digitalSignature;\r\n    string certificateDocHash;\r\n    bool isCertified;\r\n    Checkpoint[] checkpoints;\r\n}\r\n\r\n\r\n    // Define a struct for the Checkpoints\r\n    struct Checkpoint {\r\n        string location;\r\n        string longitude;\r\n        string latitude;\r\n        uint256 checkInTime;\r\n        uint256 checkOutTime;\r\n    }\r\n\r\n    // Mapping to store batches by their ID\r\n    mapping(uint256 => Batch) private batches;\r\n\r\n    // Mapping to store products by their ID\r\n    mapping(uint256 => Product) private products;\r\n\r\n    // Array to store all batch IDs\r\n    uint256[] private batchIds;\r\n\r\n    // Array to store all product IDs\r\n    uint256[] private productIds;\r\n\r\n    // Events\r\n    event ProductAdded(\r\n    uint256 productId,\r\n    uint256 batchId,\r\n    string customerName,\r\n    string customerAddress,\r\n    string customerPhoneNumber,\r\n    string customerEmail\r\n);\r\n\r\n    event BatchCreated(\r\n        uint256 batchId,\r\n        string name,\r\n        uint256 price,\r\n        string manufacturerName,\r\n        string manufacturerDetails,\r\n        string longitude,\r\n        string latitude,\r\n        string category\r\n    );\r\n\r\n    event BatchCertified(\r\n        uint256 batchId,\r\n        string certificateAuthority,\r\n        string certificateDocHash\r\n    );\r\n\r\n    event ProductAssignedToCourier(\r\n        uint256 productId,\r\n        address logisticsPartner\r\n    );\r\n\r\n    event ProductDelivered(\r\n        uint256 productId,\r\n        string deliveryStatus,\r\n        address logisticsPartner\r\n    );\r\n\r\n    event ProductAssignedToCustomer(\r\n        uint256 productId,\r\n        address customer\r\n    );\r\n\r\n    event CheckpointAdded(\r\n        uint256 productId,\r\n        string location,\r\n        string longitude,\r\n        string latitude,\r\n        uint256 checkInTime,\r\n        uint256 checkOutTime\r\n    );\r\n\r\n    // Function to add a product\r\n    function addProduct(\r\n    uint256 _productId,\r\n    uint256 _batchId,\r\n    string memory _customerName,\r\n    string memory _customerAddress,\r\n    string memory _customerPhoneNumber,\r\n    string memory _customerEmail\r\n) public {\r\n    // Ensure the product does not already exist\r\n    require(products[_productId].id == 0, \"Product with this ID already exists.\");\r\n\r\n    // Ensure the batch exists\r\n    require(batches[_batchId].id != 0, \"Batch with this ID does not exist.\");\r\n\r\n    // Create the product and link the batch details\r\n    Product storage newProduct = products[_productId];\r\n    newProduct.id = _productId;\r\n    newProduct.batchId = _batchId;\r\n    newProduct.batchDetails = batches[_batchId];\r\n    newProduct.manufacturer = msg.sender;\r\n    newProduct.logisticsPartner = address(0);\r\n    newProduct.customer = address(0);\r\n    newProduct.customerName = _customerName; // Store customer name\r\n    newProduct.customerAddress = _customerAddress; // Store customer address\r\n    newProduct.customerPhoneNumber = _customerPhoneNumber; // Store customer phone number\r\n    newProduct.customerEmail = _customerEmail; // Store customer email\r\n    newProduct.deliveryStatus = \"\";\r\n    newProduct.certificateAuthority = \"\";\r\n    newProduct.digitalSignature = \"\";\r\n    newProduct.certificateDocHash = \"\";\r\n    newProduct.isCertified = false;\r\n\r\n    productIds.push(_productId);\r\n\r\n    // Emit event to log the product addition\r\n    emit ProductAdded(\r\n    _productId,\r\n    _batchId,\r\n    _customerName,\r\n    _customerAddress,\r\n    _customerPhoneNumber,\r\n    _customerEmail\r\n);\r\n\r\n}\r\n\r\n\r\n    // Function to create a batch\r\n    function addBatch(\r\n        uint256 _id,\r\n        string memory _name,\r\n        uint256 _price,\r\n        string memory _manufacturerName,\r\n        string memory _manufacturerDetails,\r\n        string memory _longitude,\r\n        string memory _latitude,\r\n        string memory _category\r\n    ) public {\r\n        require(batches[_id].id == 0, \"Batch with this ID already exists.\");\r\n\r\n        Batch storage newBatch = batches[_id];\r\n        newBatch.id = _id;\r\n        newBatch.name = _name;\r\n        newBatch.price = _price;\r\n        newBatch.manufacturerName = _manufacturerName;\r\n        newBatch.manufacturerDetails = _manufacturerDetails;\r\n        newBatch.longitude = _longitude;\r\n        newBatch.latitude = _latitude;\r\n        newBatch.category = _category;\r\n        newBatch.manufacturer = msg.sender;\r\n        newBatch.isCertified = false;\r\n\r\n        batchIds.push(_id);\r\n\r\n        // Emit event for batch creation\r\n        emit BatchCreated(_id, _name, _price, _manufacturerName, _manufacturerDetails, _longitude, _latitude, _category);\r\n    }\r\n\r\n    // Function to add a product to a batch\r\n    // Function to add a product to a batch\r\nfunction addProductToBatch(\r\n    uint256 _batchId,\r\n    uint256 _productId\r\n) public {\r\n    require(batches[_batchId].id != 0, \"Batch does not exist.\");\r\n    require(products[_productId].id != 0, \"Product does not exist.\");\r\n\r\n    // Link product to the batch\r\n    products[_productId].batchId = _batchId;\r\n\r\n    // Emit event to log the product addition to batch\r\n    emit ProductAdded(\r\n        _productId,\r\n        _batchId,\r\n        products[_productId].customerName,\r\n        products[_productId].customerAddress,\r\n        products[_productId].customerPhoneNumber,\r\n        products[_productId].customerEmail\r\n    );\r\n}\r\n\r\n\r\n    // Function to certify a batch\r\n    function certifyBatch(\r\n        uint256 _batchId,\r\n        string memory _certificateAuthority,\r\n        string memory _digitalSignature,\r\n        string memory _certificateDocHash\r\n    ) public {\r\n        require(batches[_batchId].id != 0, \"Batch does not exist.\");\r\n        require(!batches[_batchId].isCertified, \"Batch is already certified.\");\r\n\r\n        batches[_batchId].certificateAuthority = _certificateAuthority;\r\n        batches[_batchId].digitalSignature = _digitalSignature;\r\n        batches[_batchId].certificateDocHash = _certificateDocHash;\r\n        batches[_batchId].isCertified = true;\r\n\r\n        // Emit event to log batch certification\r\n        emit BatchCertified(_batchId, _certificateAuthority, _certificateDocHash);\r\n    }\r\n\r\n    // Function for logistics partner to assign themselves to a product\r\n    function assignCourier(uint256 _productId) public {\r\n        require(products[_productId].id != 0, \"Product does not exist.\");\r\n        require(batches[products[_productId].batchId].isCertified, \"Product batch must be certified before assigning a courier.\");\r\n        require(products[_productId].logisticsPartner == address(0), \"Product already assigned to a logistics partner.\");\r\n\r\n        products[_productId].logisticsPartner = msg.sender;\r\n\r\n        emit ProductAssignedToCourier(_productId, msg.sender);\r\n    }\r\n\r\n    // Function to add a checkpoint for a product\r\n    function addCheckpoint(\r\n        uint256 _productId,\r\n        string memory _location,\r\n        string memory _longitude,\r\n        string memory _latitude,\r\n        uint256 _checkInTime,\r\n        uint256 _checkOutTime\r\n    ) public {\r\n        require(products[_productId].id != 0, \"Product does not exist.\");\r\n        require(products[_productId].logisticsPartner == msg.sender, \"Only the assigned logistics partner can add checkpoints.\");\r\n\r\n        products[_productId].checkpoints.push(Checkpoint(_location, _longitude, _latitude, _checkInTime, _checkOutTime));\r\n\r\n        emit CheckpointAdded(_productId, _location, _longitude, _latitude, _checkInTime, _checkOutTime);\r\n    }\r\n\r\n    // Function for logistics partner to mark the product as delivered\r\n    function markAsDelivered(uint256 _productId, string memory _deliveryStatus) public {\r\n        require(products[_productId].id != 0, \"Product does not exist.\");\r\n        require(products[_productId].logisticsPartner == msg.sender, \"Only the assigned logistics partner can mark as delivered.\");\r\n        require(bytes(products[_productId].deliveryStatus).length == 0, \"Product has already been delivered.\");\r\n\r\n        products[_productId].deliveryStatus = _deliveryStatus;\r\n\r\n        emit ProductDelivered(_productId, _deliveryStatus, msg.sender);\r\n    }\r\n\r\n    // Function to assign a product to the customer\r\n function assignToCustomer(uint256 _productId, address _customer) public {\r\n    require(products[_productId].id != 0, \"Product does not exist.\");\r\n    require(batches[products[_productId].batchId].manufacturer == msg.sender, \"Only the manufacturer can assign the product to a customer.\");\r\n    require(bytes(products[_productId].deliveryStatus).length != 0, \"Product must be delivered before assigning to customer.\");\r\n    \r\n    // Optionally, add a check for whether the delivery status is 'delivered' or 'shipped'\r\n    require(keccak256(bytes(products[_productId].deliveryStatus)) == keccak256(bytes(\"delivered\")), \"Product must be delivered before assignment.\");\r\n    \r\n    products[_productId].customer = _customer;\r\n\r\n    emit ProductAssignedToCustomer(_productId, _customer);\r\n}\r\n\r\n\r\n    // Function to get a batch by ID\r\n    function getBatch(uint256 _id) public view returns (Batch memory) {\r\n        require(batches[_id].id != 0, \"Batch not found.\");\r\n        return batches[_id];\r\n    }\r\n\r\n\r\n    // Function to get a product by ID\r\n    function getProduct(uint256 _id) public view returns (Product memory) {\r\n        require(products[_id].id != 0, \"Product not found.\");\r\n        return products[_id];\r\n    }\r\n\r\n    // Function to get all product IDs\r\n    function getAllProductIds() public view returns (uint256[] memory) {\r\n        return productIds;\r\n    }\r\n\r\n    // Function to get all batch IDs\r\n    function getAllBatchIds() public view returns (uint256[] memory) {\r\n        return batchIds;\r\n    }\r\n\r\n    // Function to get all checkpoints for a specific product\r\n    function getCheckpoints(uint256 _productId) public view returns (\r\n        string[] memory locations,\r\n        string[] memory longitudes,\r\n        string[] memory latitudes,\r\n        uint256[] memory checkInTimes,\r\n        uint256[] memory checkOutTimes\r\n    ) {\r\n        require(products[_productId].id != 0, \"Product does not exist.\");\r\n\r\n        uint256 checkpointCount = products[_productId].checkpoints.length;\r\n        locations = new string[](checkpointCount);\r\n        longitudes = new string[](checkpointCount);\r\n        latitudes = new string[](checkpointCount);\r\n        checkInTimes = new uint256[](checkpointCount);\r\n        checkOutTimes = new uint256[](checkpointCount);\r\n\r\n        for (uint256 i = 0; i < checkpointCount; i++) {\r\n            Checkpoint memory checkpoint = products[_productId].checkpoints[i];\r\n            locations[i] = checkpoint.location;\r\n            longitudes[i] = checkpoint.longitude;\r\n            latitudes[i] = checkpoint.latitude;\r\n            checkInTimes[i] = checkpoint.checkInTime;\r\n            checkOutTimes[i] = checkpoint.checkOutTime;\r\n        }\r\n    }\r\n\r\n    function getCustomerDetails(uint256 _productId) public view returns (\r\n    string memory customerName,\r\n    string memory customerAddress,\r\n    string memory customerPhoneNumber,\r\n    string memory customerEmail\r\n) {\r\n    require(products[_productId].id != 0, \"Product does not exist.\");\r\n    Product storage product = products[_productId];\r\n    \r\n    return (product.customerName, product.customerAddress, product.customerPhoneNumber, product.customerEmail);\r\n}\r\n\r\n\r\n    \r\n}\r\n",
  "sourcePath": "D:\\my-work\\my-work\\contracts\\BatchSupply.sol",
  "compiler": {
    "name": "solc",
    "version": "0.8.0+commit.c7dfd78e.Emscripten.clang"
  },
  "schemaVersion": "3.4.16",
  "updatedAt": "2025-07-13T17:54:04.303Z",
  "networkType": "ethereum",
  "devdoc": {
    "kind": "dev",
    "methods": {},
    "version": 1
  },
  "userdoc": {
    "kind": "user",
    "methods": {},
    "version": 1
  }
}